{
  "_format": "hh-sol-artifact-1",
  "contractName": "Airdrop",
  "sourceName": "contracts/Airdrop.sol",
  "abi": [
    {
      "inputs": [
        {
          "internalType": "address",
          "name": "_tokenAddress",
          "type": "address"
        },
        {
          "internalType": "bytes32",
          "name": "_merkleRoot",
          "type": "bytes32"
        },
        {
          "internalType": "uint256",
          "name": "_airdropAmount",
          "type": "uint256"
        }
      ],
      "stateMutability": "nonpayable",
      "type": "constructor"
    },
    {
      "anonymous": false,
      "inputs": [
        {
          "indexed": true,
          "internalType": "address",
          "name": "_from",
          "type": "address"
        },
        {
          "indexed": false,
          "internalType": "uint256",
          "name": "_aidropAmount",
          "type": "uint256"
        }
      ],
      "name": "Claimed",
      "type": "event"
    },
    {
      "inputs": [],
      "name": "airdropAmount",
      "outputs": [
        {
          "internalType": "uint256",
          "name": "",
          "type": "uint256"
        }
      ],
      "stateMutability": "view",
      "type": "function"
    },
    {
      "inputs": [
        {
          "internalType": "bytes32[]",
          "name": "_proof",
          "type": "bytes32[]"
        }
      ],
      "name": "claim",
      "outputs": [],
      "stateMutability": "nonpayable",
      "type": "function"
    },
    {
      "inputs": [],
      "name": "getContractBalance",
      "outputs": [
        {
          "internalType": "uint256",
          "name": "",
          "type": "uint256"
        }
      ],
      "stateMutability": "view",
      "type": "function"
    },
    {
      "inputs": [],
      "name": "merkleRoot",
      "outputs": [
        {
          "internalType": "bytes32",
          "name": "",
          "type": "bytes32"
        }
      ],
      "stateMutability": "view",
      "type": "function"
    },
    {
      "inputs": [],
      "name": "owner",
      "outputs": [
        {
          "internalType": "address",
          "name": "",
          "type": "address"
        }
      ],
      "stateMutability": "view",
      "type": "function"
    },
    {
      "inputs": [],
      "name": "tokenAddress",
      "outputs": [
        {
          "internalType": "address",
          "name": "",
          "type": "address"
        }
      ],
      "stateMutability": "view",
      "type": "function"
    }
  ],
  "bytecode": "0x61010060405234801561001157600080fd5b50604051610794380380610794833981016040819052610030916100a7565b6001600160a01b03831661008a5760405162461bcd60e51b815260206004820152601960248201527f4164647265737320647520746f6b656e20696e76616c69646500000000000000604482015260640160405180910390fd5b6001600160a01b0390921660a05260c05260e052336080526100ea565b6000806000606084860312156100bc57600080fd5b83516001600160a01b03811681146100d357600080fd5b602085015160409095015190969495509392505050565b60805160a05160c05160e051610651610143600039600081816101290152818161029a01526102ff015260008181606c015261042a01526000818160ed0152818161016301526103250152600060ae01526106516000f3fe608060405234801561001057600080fd5b50600436106100625760003560e01c80632eb4a7ab146100675780636f9fb98a146100a15780638da5cb5b146100a95780639d76ea58146100e8578063b391c5081461010f578063fc2ea8a514610124575b600080fd5b61008e7f000000000000000000000000000000000000000000000000000000000000000081565b6040519081526020015b60405180910390f35b61008e61014b565b6100d07f000000000000000000000000000000000000000000000000000000000000000081565b6040516001600160a01b039091168152602001610098565b6100d07f000000000000000000000000000000000000000000000000000000000000000081565b61012261011d36600461052e565b6101db565b005b61008e7f000000000000000000000000000000000000000000000000000000000000000081565b6040516370a0823160e01b81523060048201526000907f00000000000000000000000000000000000000000000000000000000000000006001600160a01b0316906370a0823190602401602060405180830381865afa1580156101b2573d6000803e3d6000fd5b505050506040513d601f19601f820116820180604052508101906101d691906105a3565b905090565b3360009081526020819052604090205460ff16156102405760405162461bcd60e51b815260206004820152601860248201527f41697264726f7020616c726561647920636c61696d65642e000000000000000060448201526064015b60405180910390fd5b3360008181526020818152604091829020805460ff191660011790558151848202818101830190935284815261029593929091869186918291908501908490808284376000920191909152506103ea92505050565b6040517f0000000000000000000000000000000000000000000000000000000000000000815233907fd8138f8a3f377c5259ca548e70e4c2de94f129f5a11036a15b69513cba2b426a9060200160405180910390a260405163a9059cbb60e01b81523360048201527f000000000000000000000000000000000000000000000000000000000000000060248201527f00000000000000000000000000000000000000000000000000000000000000006001600160a01b03169063a9059cbb906044016020604051808303816000875af1158015610376573d6000803e3d6000fd5b505050506040513d601f19601f8201168201806040525081019061039a91906105bc565b6103e65760405162461bcd60e51b815260206004820152601b60248201527f4d65726b6c6550726f6f66207472616e73666572206661696c656400000000006044820152606401610237565b5050565b6040516bffffffffffffffffffffffff19606084901b16602082015260009060340160405160208183030381529060405280519060200120905061044f827f000000000000000000000000000000000000000000000000000000000000000083610499565b6104945760405162461bcd60e51b815260206004820152601660248201527524b731b7b93932b1ba1036b2b935b63290383937b7b360511b6044820152606401610237565b505050565b6000826104a685846104af565b14949350505050565b600081815b84518110156104f4576104e0828683815181106104d3576104d36105de565b60200260200101516104fc565b9150806104ec816105f4565b9150506104b4565b509392505050565b6000818310610518576000828152602084905260409020610527565b60008381526020839052604090205b9392505050565b6000806020838503121561054157600080fd5b823567ffffffffffffffff8082111561055957600080fd5b818501915085601f83011261056d57600080fd5b81358181111561057c57600080fd5b8660208260051b850101111561059157600080fd5b60209290920196919550909350505050565b6000602082840312156105b557600080fd5b5051919050565b6000602082840312156105ce57600080fd5b8151801515811461052757600080fd5b634e487b7160e01b600052603260045260246000fd5b60006001820161061457634e487b7160e01b600052601160045260246000fd5b506001019056fea2646970667358221220c4609af342cb317f1b80282b0f691d75a6d9d874a31855e9d6de0d6f9c771f5964736f6c63430008130033",
  "linkReferences": {},
  "deployedLinkReferences": {}
}